{
  "contractName": "VideoStorage",
  "abi": [
    {
      "anonymous": false,
      "inputs": [
        {
          "indexed": true,
          "internalType": "uint256",
          "name": "videoId",
          "type": "uint256"
        },
        {
          "indexed": false,
          "internalType": "address",
          "name": "viewer",
          "type": "address"
        },
        {
          "indexed": false,
          "internalType": "uint256",
          "name": "amount",
          "type": "uint256"
        }
      ],
      "name": "VideoPaid",
      "type": "event"
    },
    {
      "anonymous": false,
      "inputs": [
        {
          "indexed": true,
          "internalType": "uint256",
          "name": "videoId",
          "type": "uint256"
        },
        {
          "indexed": false,
          "internalType": "string",
          "name": "ipfsHash",
          "type": "string"
        },
        {
          "indexed": false,
          "internalType": "string",
          "name": "title",
          "type": "string"
        },
        {
          "indexed": false,
          "internalType": "address",
          "name": "uploader",
          "type": "address"
        },
        {
          "indexed": false,
          "internalType": "uint256",
          "name": "price",
          "type": "uint256"
        }
      ],
      "name": "VideoUploaded",
      "type": "event"
    },
    {
      "inputs": [
        {
          "internalType": "uint256",
          "name": "",
          "type": "uint256"
        },
        {
          "internalType": "address",
          "name": "",
          "type": "address"
        }
      ],
      "name": "hasPaid",
      "outputs": [
        {
          "internalType": "bool",
          "name": "",
          "type": "bool"
        }
      ],
      "stateMutability": "view",
      "type": "function",
      "constant": true
    },
    {
      "inputs": [
        {
          "internalType": "address",
          "name": "",
          "type": "address"
        },
        {
          "internalType": "uint256",
          "name": "",
          "type": "uint256"
        }
      ],
      "name": "userVideos",
      "outputs": [
        {
          "internalType": "uint256",
          "name": "",
          "type": "uint256"
        }
      ],
      "stateMutability": "view",
      "type": "function",
      "constant": true
    },
    {
      "inputs": [
        {
          "internalType": "uint256",
          "name": "",
          "type": "uint256"
        }
      ],
      "name": "videos",
      "outputs": [
        {
          "internalType": "string",
          "name": "ipfsHash",
          "type": "string"
        },
        {
          "internalType": "string",
          "name": "title",
          "type": "string"
        },
        {
          "internalType": "string",
          "name": "description",
          "type": "string"
        },
        {
          "internalType": "address",
          "name": "uploader",
          "type": "address"
        },
        {
          "internalType": "uint256",
          "name": "timestamp",
          "type": "uint256"
        },
        {
          "internalType": "uint256",
          "name": "price",
          "type": "uint256"
        }
      ],
      "stateMutability": "view",
      "type": "function",
      "constant": true
    },
    {
      "inputs": [
        {
          "internalType": "string",
          "name": "_ipfsHash",
          "type": "string"
        },
        {
          "internalType": "string",
          "name": "_title",
          "type": "string"
        },
        {
          "internalType": "string",
          "name": "_description",
          "type": "string"
        },
        {
          "internalType": "uint256",
          "name": "_price",
          "type": "uint256"
        }
      ],
      "name": "uploadVideo",
      "outputs": [],
      "stateMutability": "nonpayable",
      "type": "function"
    },
    {
      "inputs": [
        {
          "internalType": "uint256",
          "name": "_videoId",
          "type": "uint256"
        }
      ],
      "name": "payToWatch",
      "outputs": [],
      "stateMutability": "payable",
      "type": "function",
      "payable": true
    },
    {
      "inputs": [
        {
          "internalType": "uint256",
          "name": "_videoId",
          "type": "uint256"
        },
        {
          "internalType": "address",
          "name": "_user",
          "type": "address"
        }
      ],
      "name": "hasUserPaid",
      "outputs": [
        {
          "internalType": "bool",
          "name": "",
          "type": "bool"
        }
      ],
      "stateMutability": "view",
      "type": "function",
      "constant": true
    },
    {
      "inputs": [
        {
          "internalType": "uint256",
          "name": "_videoId",
          "type": "uint256"
        }
      ],
      "name": "getVideo",
      "outputs": [
        {
          "internalType": "string",
          "name": "",
          "type": "string"
        },
        {
          "internalType": "string",
          "name": "",
          "type": "string"
        },
        {
          "internalType": "string",
          "name": "",
          "type": "string"
        },
        {
          "internalType": "address",
          "name": "",
          "type": "address"
        },
        {
          "internalType": "uint256",
          "name": "",
          "type": "uint256"
        },
        {
          "internalType": "uint256",
          "name": "",
          "type": "uint256"
        }
      ],
      "stateMutability": "view",
      "type": "function",
      "constant": true
    },
    {
      "inputs": [],
      "name": "getVideosCount",
      "outputs": [
        {
          "internalType": "uint256",
          "name": "",
          "type": "uint256"
        }
      ],
      "stateMutability": "view",
      "type": "function",
      "constant": true
    },
    {
      "inputs": [
        {
          "internalType": "address",
          "name": "_user",
          "type": "address"
        }
      ],
      "name": "getUserVideos",
      "outputs": [
        {
          "internalType": "uint256[]",
          "name": "",
          "type": "uint256[]"
        }
      ],
      "stateMutability": "view",
      "type": "function",
      "constant": true
    },
    {
      "inputs": [
        {
          "internalType": "uint256",
          "name": "_videoId",
          "type": "uint256"
        }
      ],
      "name": "removeVideo",
      "outputs": [],
      "stateMutability": "nonpayable",
      "type": "function"
    }
  ],
  "bytecode": "0x608060405234801561001057600080fd5b50611284806100206000396000f3fe6080604052600436106100915760003560e01c8063cc7ce8f511610059578063cc7ce8f514610151578063cec1c09214610171578063d8bc7fff1461019e578063e6821bf5146101d9578063ff476f6a146101f957600080fd5b806305a10ae314610096578063101e6501146100ba5780632893eca2146100cf5780633820c31b1461010157806357582eae14610121575b600080fd5b3480156100a257600080fd5b506000545b6040519081526020015b60405180910390f35b6100cd6100c8366004610d5c565b610219565b005b3480156100db57600080fd5b506100ef6100ea366004610d5c565b61043d565b6040516100b196959493929190610dbb565b34801561010d57600080fd5b506100cd61011c366004610d5c565b6106ad565b34801561012d57600080fd5b5061014161013c366004610e38565b61088c565b60405190151581526020016100b1565b34801561015d57600080fd5b506100cd61016c366004610f07565b6108f7565b34801561017d57600080fd5b5061019161018c366004610f97565b610acf565b6040516100b19190610fb9565b3480156101aa57600080fd5b506101416101b9366004610e38565b600260209081526000928352604080842090915290825290205460ff1681565b3480156101e557600080fd5b506100ef6101f4366004610d5c565b610b3b565b34801561020557600080fd5b506100a7610214366004610ffd565b610d2b565b60005481106102435760405162461bcd60e51b815260040161023a90611027565b60405180910390fd5b600080828154811061025757610257611055565b906000526020600020906006020190506000816005015411156104395780600501543410156102bf5760405162461bcd60e51b8152602060048201526014602482015273125b9cdd59999a58da595b9d081c185e5b595b9d60621b604482015260640161023a565b600082815260026020908152604080832033845290915290205460ff16156103295760405162461bcd60e51b815260206004820152601b60248201527f416c7265616479207061696420666f72207468697320766964656f0000000000604482015260640161023a565b600381015460058201546040516000926001600160a01b031691908381818185875af1925050503d806000811461037c576040519150601f19603f3d011682016040523d82523d6000602084013e610381565b606091505b50509050806103d25760405162461bcd60e51b815260206004820152601760248201527f5061796d656e74207472616e73666572206661696c6564000000000000000000604482015260640161023a565b60008381526002602090815260408083203380855290835292819020805460ff19166001179055600585015481519384529183019190915284917f0c80b527c62f47ceedd3d37f2e75b4eb11af787c1b988306c9db608338d39ae8910160405180910390a2505b5050565b606080606060008060008080549050871061046a5760405162461bcd60e51b815260040161023a90611027565b600080888154811061047e5761047e611055565b90600052602060002090600602016040518060c00160405290816000820180546104a79061106b565b80601f01602080910402602001604051908101604052809291908181526020018280546104d39061106b565b80156105205780601f106104f557610100808354040283529160200191610520565b820191906000526020600020905b81548152906001019060200180831161050357829003601f168201915b505050505081526020016001820180546105399061106b565b80601f01602080910402602001604051908101604052809291908181526020018280546105659061106b565b80156105b25780601f10610587576101008083540402835291602001916105b2565b820191906000526020600020905b81548152906001019060200180831161059557829003601f168201915b505050505081526020016002820180546105cb9061106b565b80601f01602080910402602001604051908101604052809291908181526020018280546105f79061106b565b80156106445780601f1061061957610100808354040283529160200191610644565b820191906000526020600020905b81548152906001019060200180831161062757829003601f168201915b505050918352505060038201546001600160a01b031660208083019190915260048301546040808401919091526005909301546060928301528351908401519284015191840151608085015160a090950151919d939c50919a5090985091965090945092505050565b60005481106106ce5760405162461bcd60e51b815260040161023a90611027565b60008082815481106106e2576106e2611055565b6000918252602090912060069091020160038101549091506001600160a01b031633146107605760405162461bcd60e51b815260206004820152602660248201527f4f6e6c79207468652075706c6f616465722063616e2072656d6f76652074686560448201526520766964656f60d01b606482015260840161023a565b336000908152600160205260408120905b8154811015610825578382828154811061078d5761078d611055565b90600052602060002001540361081357815482906107ad906001906110bb565b815481106107bd576107bd611055565b90600052602060002001548282815481106107da576107da611055565b9060005260206000200181905550818054806107f8576107f86110ce565b60019003818190600052602060002001600090559055610825565b8061081d816110e4565b915050610771565b506040805160208101909152600081528290610841908261114c565b506040805160208101909152600081526001830190610860908261114c565b50604080516020810190915260008152600283019061087f908261114c565b5050600060059091015550565b600080600084815481106108a2576108a2611055565b9060005260206000209060060201905080600501546000036108c85760019150506108f1565b505060008281526002602090815260408083206001600160a01b038516845290915290205460ff165b92915050565b60008451116109485760405162461bcd60e51b815260206004820152601960248201527f4950465320686173682063616e6e6f7420626520656d70747900000000000000604482015260640161023a565b60008351116109915760405162461bcd60e51b81526020600482015260156024820152745469746c652063616e6e6f7420626520656d70747960581b604482015260640161023a565b600080546040805160c0810182528781526020810187905290810185905233606082015242608082015260a081018490526001820183559180528151909190600683027f290decd9548b62a8d60345a988386fc84ba6bc95484008f6362f93160ef3e56301908190610a03908261114c565b5060208201516001820190610a18908261114c565b5060408201516002820190610a2d908261114c565b5060608201516003820180546001600160a01b0319166001600160a01b039092169190911790556080820151600482015560a0909101516005909101553360008181526001602081815260408084208054938401815584529220018390555182917f90daba497ab07e5d32b9cc5fd2b8352124d5a5adffc885eec603663213fd4eae91610ac0918991899190889061120c565b60405180910390a25050505050565b6001600160a01b038116600090815260016020908152604091829020805483518184028101840190945280845260609392830182828015610b2f57602002820191906000526020600020905b815481526020019060010190808311610b1b575b50505050509050919050565b60008181548110610b4b57600080fd5b9060005260206000209060060201600091509050806000018054610b6e9061106b565b80601f0160208091040260200160405190810160405280929190818152602001828054610b9a9061106b565b8015610be75780601f10610bbc57610100808354040283529160200191610be7565b820191906000526020600020905b815481529060010190602001808311610bca57829003601f168201915b505050505090806001018054610bfc9061106b565b80601f0160208091040260200160405190810160405280929190818152602001828054610c289061106b565b8015610c755780601f10610c4a57610100808354040283529160200191610c75565b820191906000526020600020905b815481529060010190602001808311610c5857829003601f168201915b505050505090806002018054610c8a9061106b565b80601f0160208091040260200160405190810160405280929190818152602001828054610cb69061106b565b8015610d035780601f10610cd857610100808354040283529160200191610d03565b820191906000526020600020905b815481529060010190602001808311610ce657829003601f168201915b505050506003830154600484015460059094015492936001600160a01b039091169290915086565b60016020528160005260406000208181548110610d4757600080fd5b90600052602060002001600091509150505481565b600060208284031215610d6e57600080fd5b5035919050565b6000815180845260005b81811015610d9b57602081850181015186830182015201610d7f565b506000602082860101526020601f19601f83011685010191505092915050565b60c081526000610dce60c0830189610d75565b8281036020840152610de08189610d75565b90508281036040840152610df48188610d75565b6001600160a01b039690961660608401525050608081019290925260a0909101529392505050565b80356001600160a01b0381168114610e3357600080fd5b919050565b60008060408385031215610e4b57600080fd5b82359150610e5b60208401610e1c565b90509250929050565b634e487b7160e01b600052604160045260246000fd5b600082601f830112610e8b57600080fd5b813567ffffffffffffffff80821115610ea657610ea6610e64565b604051601f8301601f19908116603f01168101908282118183101715610ece57610ece610e64565b81604052838152866020858801011115610ee757600080fd5b836020870160208301376000602085830101528094505050505092915050565b60008060008060808587031215610f1d57600080fd5b843567ffffffffffffffff80821115610f3557600080fd5b610f4188838901610e7a565b95506020870135915080821115610f5757600080fd5b610f6388838901610e7a565b94506040870135915080821115610f7957600080fd5b50610f8687828801610e7a565b949793965093946060013593505050565b600060208284031215610fa957600080fd5b610fb282610e1c565b9392505050565b6020808252825182820181905260009190848201906040850190845b81811015610ff157835183529284019291840191600101610fd5565b50909695505050505050565b6000806040838503121561101057600080fd5b61101983610e1c565b946020939093013593505050565b602080825260149082015273159a59195bc8191bd95cc81b9bdd08195e1a5cdd60621b604082015260600190565b634e487b7160e01b600052603260045260246000fd5b600181811c9082168061107f57607f821691505b60208210810361109f57634e487b7160e01b600052602260045260246000fd5b50919050565b634e487b7160e01b600052601160045260246000fd5b818103818111156108f1576108f16110a5565b634e487b7160e01b600052603160045260246000fd5b6000600182016110f6576110f66110a5565b5060010190565b601f82111561114757600081815260208120601f850160051c810160208610156111245750805b601f850160051c820191505b8181101561114357828155600101611130565b5050505b505050565b815167ffffffffffffffff81111561116657611166610e64565b61117a81611174845461106b565b846110fd565b602080601f8311600181146111af57600084156111975750858301515b600019600386901b1c1916600185901b178555611143565b600085815260208120601f198616915b828110156111de578886015182559484019460019091019084016111bf565b50858210156111fc5787850151600019600388901b60f8161c191681555b5050505050600190811b01905550565b60808152600061121f6080830187610d75565b82810360208401526112318187610d75565b6001600160a01b039590951660408401525050606001529291505056fea26469706673582212207bc9f19765e82b667c7537f6ae3a2428d2d0ffb021a61a20a6a36bd0415b132364736f6c63430008130033",
  "immutableReferences": {},
  "source": "// SPDX-License-Identifier: MIT\npragma solidity ^0.8.0;\n\ncontract VideoStorage {\n    struct Video {\n        string ipfsHash;\n        string title;\n        string description;\n        address uploader;\n        uint256 timestamp;\n        uint256 price; // Price in wei\n    }\n\n    Video[] public videos;\n    mapping(address => uint256[]) public userVideos;\n    mapping(uint256 => mapping(address => bool)) public hasPaid;\n\n    event VideoUploaded(\n        uint256 indexed videoId,\n        string ipfsHash,\n        string title,\n        address uploader,\n        uint256 price\n    );\n\n    event VideoPaid(\n        uint256 indexed videoId,\n        address viewer,\n        uint256 amount\n    );\n\n    function uploadVideo(\n        string memory _ipfsHash,\n        string memory _title,\n        string memory _description,\n        uint256 _price\n    ) public {\n        require(bytes(_ipfsHash).length > 0, \"IPFS hash cannot be empty\");\n        require(bytes(_title).length > 0, \"Title cannot be empty\");\n        // Remove price requirement to allow free videos\n        \n        uint256 videoId = videos.length;\n        videos.push(\n            Video({\n                ipfsHash: _ipfsHash,\n                title: _title,\n                description: _description,\n                uploader: msg.sender,\n                timestamp: block.timestamp,\n                price: _price\n            })\n        );\n\n        userVideos[msg.sender].push(videoId);\n        emit VideoUploaded(videoId, _ipfsHash, _title, msg.sender, _price);\n    }\n\n    function payToWatch(uint256 _videoId) public payable {\n        require(_videoId < videos.length, \"Video does not exist\");\n        Video storage video = videos[_videoId];\n        \n        // Only require payment if the video has a price\n        if (video.price > 0) {\n            require(msg.value >= video.price, \"Insufficient payment\");\n            require(!hasPaid[_videoId][msg.sender], \"Already paid for this video\");\n            \n            // Transfer payment to video uploader\n            (bool success, ) = video.uploader.call{value: video.price}(\"\");\n            require(success, \"Payment transfer failed\");\n            \n            // Mark as paid\n            hasPaid[_videoId][msg.sender] = true;\n            emit VideoPaid(_videoId, msg.sender, video.price);\n        }\n    }\n\n    function hasUserPaid(uint256 _videoId, address _user) public view returns (bool) {\n        Video storage video = videos[_videoId];\n        // Free videos are considered \"paid\"\n        if (video.price == 0) {\n            return true;\n        }\n        return hasPaid[_videoId][_user];\n    }\n\n    function getVideo(uint256 _videoId)\n        public\n        view\n        returns (\n            string memory,\n            string memory,\n            string memory,\n            address,\n            uint256,\n            uint256\n        )\n    {\n        require(_videoId < videos.length, \"Video does not exist\");\n        Video memory video = videos[_videoId];\n        return (\n            video.ipfsHash,\n            video.title,\n            video.description,\n            video.uploader,\n            video.timestamp,\n            video.price\n        );\n    }\n\n    function getVideosCount() public view returns (uint256) {\n        return videos.length;\n    }\n\n    function getUserVideos(address _user) public view returns (uint256[] memory) {\n        return userVideos[_user];\n    }\n\n    function removeVideo(uint256 _videoId) public {\n        require(_videoId < videos.length, \"Video does not exist\");\n        Video storage video = videos[_videoId];\n        require(msg.sender == video.uploader, \"Only the uploader can remove the video\");\n        \n        // Remove video from user's video list\n        uint256[] storage userVideoList = userVideos[msg.sender];\n        for (uint256 i = 0; i < userVideoList.length; i++) {\n            if (userVideoList[i] == _videoId) {\n                userVideoList[i] = userVideoList[userVideoList.length - 1];\n                userVideoList.pop();\n                break;\n            }\n        }\n        \n        // Clear video data\n        video.ipfsHash = \"\";\n        video.title = \"\";\n        video.description = \"\";\n        video.price = 0;\n    }\n} ",
  "sourcePath": "/home/akashcn/AKASHCN/ACADEMICS/SEM6/blockchain/MINIPROJECT/Decentralised_videoStreaming_Dapp/contracts/VideoStorage.sol",
  "compiler": {
    "name": "solc",
    "version": "0.8.19+commit.7dd6d404.Emscripten.clang"
  },
  "schemaVersion": "3.4.16",
  "updatedAt": "2025-04-17T12:35:40.609Z",
  "networkType": "ethereum",
  "devdoc": {
    "kind": "dev",
    "methods": {},
    "version": 1
  },
  "userdoc": {
    "kind": "user",
    "methods": {},
    "version": 1
  }
}